:0400000043EF05F0D5
:100800000000000E066E04BE0AEF04F008EF04F0CC
:1008100010EF04F0036C041ED8B0042A010E066E1B
:1008200002BE17EF04F015EF04F01DEF04F0016CA9
:10083000021ED8B0022A010E061A000E086E000E23
:10084000076E03500410D8B428EF04F02AEF04F028
:1008500052EF04F0010E056E32EF04F0D89003362B
:100860000436052A04AE37EF04F039EF04F02EEF1A
:1008700004F0D890073608360350015C0450025843
:10088000D8A045EF04F047EF04F04CEF04F003501C
:10089000015E0450025A0780D89004320332052EBC
:1008A00039EF04F00650D8B458EF04F05AEF04F0D2
:1008B0005EEF04F0076C081ED8B0082A07C001F0EC
:1008C00008C002F01200000E066E02BE6CEF04F0CB
:1008D0006AEF04F072EF04F0016C021ED8B0022A35
:1008E000010E066E04BE79EF04F077EF04F07DEFA1
:1008F00004F0036C041ED8B0042A03500410D8B4CA
:1009000084EF04F086EF04F0AAEF04F0010E056E08
:100910008EEF04F0D89003360436052A04AE93EF28
:1009200004F095EF04F08AEF04F00350015C0450EA
:100930000258D8A09EEF04F0A0EF04F0A4EF04F05A
:100940000350015E0450025AD89004320332052E3F
:1009500095EF04F00650D8B4B0EF04F0B2EF04F015
:10096000B6EF04F0016C021ED8B0022A01C001F0FB
:1009700002C002F01200000E186E010E196E190E60
:10098000176E8F0ED316600ED312000E956ECF0E1B
:10099000941618C009F0195001EC05F01A0E166EE5
:1009A000F80EE82EFED7162EFCD700D01904D8A4D6
:1009B000DCEF04F0DEEF04F0E2EF04F0000E196E5D
:1009C000E4EF04F0010E196E17061750D8A4EBEFF0
:1009D00004F0EDEF04F0C9EF04F0190E176E180ED5
:1009E0001818D8A4F6EF04F0F8EF04F0FCEF04F0C8
:1009F000000E186EC9EF04F0182AC9EF04F000EFDA
:100A000000F0146E20EE1AF010EE0AF0090EDBCFA3
:100A1000E3FFE806FCE2CF0E8B1637EF05F009C0C6
:100A200001F0026A000E046E0A0E036E01EC04F07F
:100A30000150156E15500A0FD96EDA6ADF508C6EB0
:100A40008B8A42EF05F009C001F0026A000E046EC5
:100A50000A0E036E63EC04F00150156E15500A0F78
:100A6000D96EDA6ADF508C6E8B8842EF05F0145035
:100A7000000AD8B423EF05F0010AD8B40FEF05F04F
:100A800042EF05F01200B00EF66E0A0EF76E000E81
:100A9000F86E00EE1AF010EE0AF00900F5CFEEFF46
:100AA000E550E150FAE1000EF86E0001BBEF04F0F2
:0A0AB0003F065B4F666D7D077F6710
:020000040030CA
:0E0000000008181EFF0185FF0FC00FE00F4023
:00000001FF
